{
  "contractName": "Songstore",
  "abi": [
    {
      "constant": true,
      "inputs": [],
      "name": "name",
      "outputs": [
        {
          "name": "",
          "type": "string"
        }
      ],
      "payable": false,
      "stateMutability": "view",
      "type": "function",
      "signature": "0x06fdde03"
    },
    {
      "constant": true,
      "inputs": [
        {
          "name": "",
          "type": "uint256"
        }
      ],
      "name": "products",
      "outputs": [
        {
          "name": "id",
          "type": "uint256"
        },
        {
          "name": "name",
          "type": "string"
        },
        {
          "name": "priceDigitalDownload",
          "type": "uint256"
        },
        {
          "name": "priceCoverVersion",
          "type": "uint256"
        },
        {
          "name": "priceRegularLicense",
          "type": "uint256"
        },
        {
          "name": "priceExtendedLicense",
          "type": "uint256"
        },
        {
          "name": "owner",
          "type": "address"
        },
        {
          "name": "purchased",
          "type": "bool"
        }
      ],
      "payable": false,
      "stateMutability": "view",
      "type": "function",
      "signature": "0x7acc0b20"
    },
    {
      "constant": true,
      "inputs": [],
      "name": "productCount",
      "outputs": [
        {
          "name": "",
          "type": "uint256"
        }
      ],
      "payable": false,
      "stateMutability": "view",
      "type": "function",
      "signature": "0xe0f6ef87"
    },
    {
      "inputs": [],
      "payable": false,
      "stateMutability": "nonpayable",
      "type": "constructor",
      "signature": "constructor"
    },
    {
      "anonymous": false,
      "inputs": [
        {
          "indexed": false,
          "name": "id",
          "type": "uint256"
        },
        {
          "indexed": false,
          "name": "name",
          "type": "string"
        },
        {
          "indexed": false,
          "name": "priceDigitalDownload",
          "type": "uint256"
        },
        {
          "indexed": false,
          "name": "priceCoverVersion",
          "type": "uint256"
        },
        {
          "indexed": false,
          "name": "priceRegularLicense",
          "type": "uint256"
        },
        {
          "indexed": false,
          "name": "priceExtendedLicense",
          "type": "uint256"
        },
        {
          "indexed": false,
          "name": "owner",
          "type": "address"
        },
        {
          "indexed": false,
          "name": "purchased",
          "type": "bool"
        }
      ],
      "name": "ProductCreated",
      "type": "event",
      "signature": "0x39b2bed41ab12f2a05f8a9ba76bf8ade9947ea16574370af8f3a73c4e8d59235"
    },
    {
      "anonymous": false,
      "inputs": [
        {
          "indexed": false,
          "name": "id",
          "type": "uint256"
        },
        {
          "indexed": false,
          "name": "name",
          "type": "string"
        },
        {
          "indexed": false,
          "name": "priceDigitalDownload",
          "type": "uint256"
        },
        {
          "indexed": false,
          "name": "priceCoverVersion",
          "type": "uint256"
        },
        {
          "indexed": false,
          "name": "priceRegularLicense",
          "type": "uint256"
        },
        {
          "indexed": false,
          "name": "priceExtendedLicense",
          "type": "uint256"
        },
        {
          "indexed": false,
          "name": "owner",
          "type": "address"
        },
        {
          "indexed": false,
          "name": "purchased",
          "type": "bool"
        }
      ],
      "name": "ProductPurchased",
      "type": "event",
      "signature": "0x717addc87be8db7e074752e5796704dcb15e4a9414fba9d69659849c4c289e58"
    },
    {
      "constant": false,
      "inputs": [
        {
          "name": "_name",
          "type": "string"
        },
        {
          "name": "_priceDigitalDownload",
          "type": "uint256"
        },
        {
          "name": "_priceCoverVersion",
          "type": "uint256"
        },
        {
          "name": "_priceRegularLicense",
          "type": "uint256"
        },
        {
          "name": "_priceExtendedLicense",
          "type": "uint256"
        }
      ],
      "name": "createProduct",
      "outputs": [],
      "payable": false,
      "stateMutability": "nonpayable",
      "type": "function",
      "signature": "0x294bf335"
    },
    {
      "constant": false,
      "inputs": [
        {
          "name": "_id",
          "type": "uint256"
        }
      ],
      "name": "purchaseProduct",
      "outputs": [],
      "payable": true,
      "stateMutability": "payable",
      "type": "function",
      "signature": "0x38e76a03"
    }
  ],
  "bytecode": "0x6080604052600060015534801561001557600080fd5b506040805190810160405280601181526020017f4d6172656b277320736f6e6773746f726500000000000000000000000000000081525060009080519060200190610061929190610067565b5061010c565b828054600181600116156101000203166002900490600052602060002090601f016020900481019282601f106100a857805160ff19168380011785556100d6565b828001600101855582156100d6579182015b828111156100d55782518255916020019190600101906100ba565b5b5090506100e391906100e7565b5090565b61010991905b808211156101055760008160009055506001016100ed565b5090565b90565b610d368061011b6000396000f3fe60806040526004361061006d576000357c0100000000000000000000000000000000000000000000000000000000900463ffffffff16806306fdde0314610072578063294bf3351461010257806338e76a03146101f25780637acc0b2014610220578063e0f6ef8714610335575b600080fd5b34801561007e57600080fd5b50610087610360565b6040518080602001828103825283818151815260200191508051906020019080838360005b838110156100c75780820151818401526020810190506100ac565b50505050905090810190601f1680156100f45780820380516001836020036101000a031916815260200191505b509250505060405180910390f35b34801561010e57600080fd5b506101f0600480360360a081101561012557600080fd5b810190808035906020019064010000000081111561014257600080fd5b82018360208201111561015457600080fd5b8035906020019184600183028401116401000000008311171561017657600080fd5b91908080601f016020809104026020016040519081016040528093929190818152602001838380828437600081840152601f19601f820116905080830192505050505050509192919290803590602001909291908035906020019092919080359060200190929190803590602001909291905050506103fe565b005b61021e6004803603602081101561020857600080fd5b810190808035906020019092919050505061068e565b005b34801561022c57600080fd5b506102596004803603602081101561024357600080fd5b8101908080359060200190929190505050610af4565b60405180898152602001806020018881526020018781526020018681526020018581526020018473ffffffffffffffffffffffffffffffffffffffff1673ffffffffffffffffffffffffffffffffffffffff16815260200183151515158152602001828103825289818151815260200191508051906020019080838360005b838110156102f35780820151818401526020810190506102d8565b50505050905090810190601f1680156103205780820380516001836020036101000a031916815260200191505b50995050505050505050505060405180910390f35b34801561034157600080fd5b5061034a610c01565b6040518082815260200191505060405180910390f35b60008054600181600116156101000203166002900480601f0160208091040260200160405190810160405280929190818152602001828054600181600116156101000203166002900480156103f65780601f106103cb576101008083540402835291602001916103f6565b820191906000526020600020905b8154815290600101906020018083116103d957829003601f168201915b505050505081565b6000855111151561040e57600080fd5b60008411151561041d57600080fd5b60008311151561042c57600080fd5b60008211151561043b57600080fd5b60008111151561044a57600080fd5b6001600081548092919060010191905055506101006040519081016040528060015481526020018681526020018581526020018481526020018381526020018281526020013373ffffffffffffffffffffffffffffffffffffffff168152602001600015158152506002600060015481526020019081526020016000206000820151816000015560208201518160010190805190602001906104ed929190610c07565b5060408201518160020155606082015181600301556080820151816004015560a0820151816005015560c08201518160060160006101000a81548173ffffffffffffffffffffffffffffffffffffffff021916908373ffffffffffffffffffffffffffffffffffffffff16021790555060e08201518160060160146101000a81548160ff0219169083151502179055509050507f39b2bed41ab12f2a05f8a9ba76bf8ade9947ea16574370af8f3a73c4e8d59235600154868686868633600060405180898152602001806020018881526020018781526020018681526020018581526020018473ffffffffffffffffffffffffffffffffffffffff1673ffffffffffffffffffffffffffffffffffffffff16815260200183151515158152602001828103825289818151815260200191508051906020019080838360005b8381101561064657808201518184015260208101905061062b565b50505050905090810190601f1680156106735780820380516001836020036101000a031916815260200191505b50995050505050505050505060405180910390a15050505050565b610696610c87565b60026000838152602001908152602001600020610100604051908101604052908160008201548152602001600182018054600181600116156101000203166002900480601f0160208091040260200160405190810160405280929190818152602001828054600181600116156101000203166002900480156107595780601f1061072e57610100808354040283529160200191610759565b820191906000526020600020905b81548152906001019060200180831161073c57829003601f168201915b50505050508152602001600282015481526020016003820154815260200160048201548152602001600582015481526020016006820160009054906101000a900473ffffffffffffffffffffffffffffffffffffffff1673ffffffffffffffffffffffffffffffffffffffff1673ffffffffffffffffffffffffffffffffffffffff1681526020016006820160149054906101000a900460ff161515151581525050905060008160c001519050600082600001511180156108205750600154826000015111155b151561082b57600080fd5b8160e0015115151561083c57600080fd5b3373ffffffffffffffffffffffffffffffffffffffff168173ffffffffffffffffffffffffffffffffffffffff161415151561087757600080fd5b338260c0019073ffffffffffffffffffffffffffffffffffffffff16908173ffffffffffffffffffffffffffffffffffffffff168152505060018260e001901515908115158152505081600260008581526020019081526020016000206000820151816000015560208201518160010190805190602001906108fa929190610c07565b5060408201518160020155606082015181600301556080820151816004015560a0820151816005015560c08201518160060160006101000a81548173ffffffffffffffffffffffffffffffffffffffff021916908373ffffffffffffffffffffffffffffffffffffffff16021790555060e08201518160060160146101000a81548160ff0219169083151502179055509050508073ffffffffffffffffffffffffffffffffffffffff166108fc349081150290604051600060405180830381858888f193505050501580156109d3573d6000803e3d6000fd5b507f717addc87be8db7e074752e5796704dcb15e4a9414fba9d69659849c4c289e5860015483602001518460400151856060015186608001518760a0015133600160405180898152602001806020018881526020018781526020018681526020018581526020018473ffffffffffffffffffffffffffffffffffffffff1673ffffffffffffffffffffffffffffffffffffffff16815260200183151515158152602001828103825289818151815260200191508051906020019080838360005b83811015610aae578082015181840152602081019050610a93565b50505050905090810190601f168015610adb5780820380516001836020036101000a031916815260200191505b50995050505050505050505060405180910390a1505050565b6002602052806000526040600020600091509050806000015490806001018054600181600116156101000203166002900480601f016020809104026020016040519081016040528092919081815260200182805460018160011615610100020316600290048015610ba65780601f10610b7b57610100808354040283529160200191610ba6565b820191906000526020600020905b815481529060010190602001808311610b8957829003601f168201915b5050505050908060020154908060030154908060040154908060050154908060060160009054906101000a900473ffffffffffffffffffffffffffffffffffffffff16908060060160149054906101000a900460ff16905088565b60015481565b828054600181600116156101000203166002900490600052602060002090601f016020900481019282601f10610c4857805160ff1916838001178555610c76565b82800160010185558215610c76579182015b82811115610c75578251825591602001919060010190610c5a565b5b509050610c839190610ce5565b5090565b61010060405190810160405280600081526020016060815260200160008152602001600081526020016000815260200160008152602001600073ffffffffffffffffffffffffffffffffffffffff1681526020016000151581525090565b610d0791905b80821115610d03576000816000905550600101610ceb565b5090565b9056fea165627a7a72305820ace4c06fb8dfe08c39068eb1a86d675f7215f598b556dff24be9672856b982b30029",
  "source": "pragma solidity ^0.5.0;\r\n\r\ncontract Songstore {\r\n\tstring public name;\r\n\tuint public productCount = 0;\r\n\tmapping(uint => Product) public products;\r\n\r\n\tstruct Product {\r\n\t\tuint id;\r\n\t\tstring name;\r\n\t\tuint priceDigitalDownload;\r\n\t\tuint priceCoverVersion;\r\n\t\tuint priceRegularLicense;\r\n\t\tuint priceExtendedLicense;\r\n\t\taddress payable owner;\r\n\t\tbool purchased;\r\n\t}\r\n\r\n\tevent ProductCreated(\r\n\t\t\tuint id,\r\n\t\t\tstring name,\r\n\t\t\tuint priceDigitalDownload,\r\n\t\t\tuint priceCoverVersion,\r\n\t\t\tuint priceRegularLicense,\r\n\t\t\tuint priceExtendedLicense,\r\n\t\t\taddress payable owner,\r\n\t\t\tbool purchased\r\n\t\t); \r\n\r\n\tevent ProductPurchased(\r\n\t\t\tuint id,\r\n\t\t\tstring name,\r\n\t\t\tuint priceDigitalDownload,\r\n\t\t\tuint priceCoverVersion,\r\n\t\t\tuint priceRegularLicense,\r\n\t\t\tuint priceExtendedLicense,\r\n\t\t\taddress payable owner,\r\n\t\t\tbool purchased\r\n\t\t); \r\n\r\n\tconstructor() public {\r\n\t\tname = \"Marek's songstore\";\r\n\t}\r\n\r\n\tfunction createProduct(string memory _name, uint _priceDigitalDownload, uint _priceCoverVersion, uint _priceRegularLicense, uint _priceExtendedLicense) public {\r\n\t\t//Make sure parameters are correct\r\n\t\t//Require a valid name\r\n\t\trequire(bytes(_name).length > 0);\r\n\t\t//Require a valid price\r\n\t\trequire(_priceDigitalDownload > 0);\r\n\t\trequire(_priceCoverVersion > 0);\r\n\t\trequire(_priceRegularLicense > 0);\r\n\t\trequire(_priceExtendedLicense > 0);\r\n\t\t//Increment productCont\r\n\t\tproductCount ++;\r\n\t\t//Create the product\r\n\t\tproducts[productCount] = Product(productCount, _name, _priceDigitalDownload, _priceCoverVersion, _priceRegularLicense, _priceExtendedLicense, msg.sender, false);\r\n\t\t// Trigger an event\r\n\t\temit ProductCreated(productCount, _name, _priceDigitalDownload,  _priceCoverVersion, _priceRegularLicense, _priceExtendedLicense, msg.sender, false);\r\n\r\n\t}\r\n\r\n\tfunction purchaseProduct(uint _id) public payable {\r\n\t\t//Fetch the product\r\n\t\tProduct memory _product = products[_id];\r\n\r\n\t\t//Fetch the owner\r\n\t\taddress payable _seller = _product.owner;\r\n\t\t//Make sure the product is valid - has a valid id)\r\n\r\n\t\trequire (_product.id > 0 && _product.id <= productCount);\r\n\t\t//Require that there's enough Ether in the transaction\r\n\t\t// require (msg.value >= _mySelectedValue);\r\n\t\t//Require that the product has not been purchased already\r\n\t\trequire(!_product.purchased);\r\n\t\t//Require that the buyer is not the seller\r\n\t\trequire(_seller != msg.sender);\r\n\t\t\r\n\t\t\r\n\r\n\t\t//Purchase it - transfer the ownership to the buyer\r\n\t\t_product.owner = msg.sender;\r\n\t\t//Mark as purchased\r\n\t\t_product.purchased = true;\r\n\t\t//Update the product\r\n\t\tproducts[_id] = _product; \r\n\t\t//Pay the seller by sending them Ether\r\n\t\taddress(_seller).transfer(msg.value);\r\n\t\t//Trigger an event\r\n\t\temit ProductPurchased(productCount, _product.name, _product.priceDigitalDownload, _product.priceCoverVersion, _product.priceRegularLicense, _product.priceExtendedLicense, msg.sender, true);\r\n\r\n\t}\r\n\t\r\n}\r\n\r\n",
  "sourcePath": "D:/songstore/src/contracts/Songstore.sol",
  "compiler": {
    "name": "solc",
    "version": "0.5.0+commit.1d4f565a.Emscripten.clang"
  },
  "schemaVersion": "3.0.2",
  "updatedAt": "2021-04-24T13:50:51.377Z",
  "devdoc": {
    "methods": {}
  },
  "userdoc": {
    "methods": {}
  }
}