{
  "contractName": "Songstore",
  "abi": [
    {
      "constant": true,
      "inputs": [],
      "name": "allSongsCounter",
      "outputs": [
        {
          "name": "",
          "type": "uint256"
        }
      ],
      "payable": false,
      "stateMutability": "view",
      "type": "function",
      "signature": "0x1f241311"
    },
    {
      "constant": true,
      "inputs": [
        {
          "name": "",
          "type": "uint256"
        }
      ],
      "name": "songs",
      "outputs": [
        {
          "name": "id",
          "type": "uint256"
        },
        {
          "name": "title",
          "type": "string"
        },
        {
          "name": "artist",
          "type": "string"
        },
        {
          "name": "genre",
          "type": "string"
        },
        {
          "name": "priceDigitalDownload",
          "type": "uint256"
        },
        {
          "name": "priceCoverVersion",
          "type": "uint256"
        },
        {
          "name": "priceRegularLicense",
          "type": "uint256"
        },
        {
          "name": "priceExtendedLicense",
          "type": "uint256"
        },
        {
          "name": "owner",
          "type": "address"
        },
        {
          "name": "purchased",
          "type": "bool"
        }
      ],
      "payable": false,
      "stateMutability": "view",
      "type": "function",
      "signature": "0x304cff30"
    },
    {
      "constant": true,
      "inputs": [],
      "name": "applicationTitle",
      "outputs": [
        {
          "name": "",
          "type": "string"
        }
      ],
      "payable": false,
      "stateMutability": "view",
      "type": "function",
      "signature": "0x546febcd"
    },
    {
      "inputs": [],
      "payable": false,
      "stateMutability": "nonpayable",
      "type": "constructor",
      "signature": "constructor"
    },
    {
      "anonymous": false,
      "inputs": [
        {
          "indexed": false,
          "name": "id",
          "type": "uint256"
        },
        {
          "indexed": false,
          "name": "title",
          "type": "string"
        },
        {
          "indexed": false,
          "name": "priceDigitalDownload",
          "type": "uint256"
        },
        {
          "indexed": false,
          "name": "priceCoverVersion",
          "type": "uint256"
        },
        {
          "indexed": false,
          "name": "priceRegularLicense",
          "type": "uint256"
        },
        {
          "indexed": false,
          "name": "priceExtendedLicense",
          "type": "uint256"
        },
        {
          "indexed": false,
          "name": "owner",
          "type": "address"
        },
        {
          "indexed": false,
          "name": "purchased",
          "type": "bool"
        }
      ],
      "name": "SongCreated",
      "type": "event",
      "signature": "0xa88356b1299678ec8b125e083751c474128b3b32c45998621d62696aaa8e2e67"
    },
    {
      "anonymous": false,
      "inputs": [
        {
          "indexed": false,
          "name": "id",
          "type": "uint256"
        },
        {
          "indexed": false,
          "name": "title",
          "type": "string"
        },
        {
          "indexed": false,
          "name": "value",
          "type": "uint256"
        },
        {
          "indexed": false,
          "name": "owner",
          "type": "address"
        },
        {
          "indexed": false,
          "name": "purchased",
          "type": "bool"
        }
      ],
      "name": "SongPurchased",
      "type": "event",
      "signature": "0x4e92880991184dc8001396657f045bad716ee38038ba44a7a1d3ed33d044bda4"
    },
    {
      "constant": false,
      "inputs": [
        {
          "name": "_title",
          "type": "string"
        },
        {
          "name": "_artist",
          "type": "string"
        },
        {
          "name": "_genre",
          "type": "string"
        },
        {
          "name": "_priceDigitalDownload",
          "type": "uint256"
        },
        {
          "name": "_priceCoverVersion",
          "type": "uint256"
        },
        {
          "name": "_priceRegularLicense",
          "type": "uint256"
        },
        {
          "name": "_priceExtendedLicense",
          "type": "uint256"
        }
      ],
      "name": "createSong",
      "outputs": [],
      "payable": false,
      "stateMutability": "nonpayable",
      "type": "function",
      "signature": "0xe26cb524"
    },
    {
      "constant": false,
      "inputs": [
        {
          "name": "_id",
          "type": "uint256"
        }
      ],
      "name": "purchaseSong",
      "outputs": [],
      "payable": true,
      "stateMutability": "payable",
      "type": "function",
      "signature": "0x7b3e4ce0"
    }
  ],
  "bytecode": "0x608060405260006001553480156200001657600080fd5b506040805190810160405280601181526020017f4d6172656b277320736f6e6773746f726500000000000000000000000000000081525060009080519060200190620000649291906200006b565b506200011a565b828054600181600116156101000203166002900490600052602060002090601f016020900481019282601f10620000ae57805160ff1916838001178555620000df565b82800160010185558215620000df579182015b82811115620000de578251825591602001919060010190620000c1565b5b509050620000ee9190620000f2565b5090565b6200011791905b8082111562000113576000816000905550600101620000f9565b5090565b90565b61123a806200012a6000396000f3fe60806040526004361061006d576000357c0100000000000000000000000000000000000000000000000000000000900463ffffffff1680631f24131114610072578063304cff301461009d578063546febcd1461028a5780637b3e4ce01461031a578063e26cb52414610348575b600080fd5b34801561007e57600080fd5b50610087610566565b6040518082815260200191505060405180910390f35b3480156100a957600080fd5b506100d6600480360360208110156100c057600080fd5b810190808035906020019092919050505061056c565b604051808b81526020018060200180602001806020018a81526020018981526020018881526020018781526020018673ffffffffffffffffffffffffffffffffffffffff1673ffffffffffffffffffffffffffffffffffffffff1681526020018515151515815260200184810384528d818151815260200191508051906020019080838360005b8381101561017857808201518184015260208101905061015d565b50505050905090810190601f1680156101a55780820380516001836020036101000a031916815260200191505b5084810383528c818151815260200191508051906020019080838360005b838110156101de5780820151818401526020810190506101c3565b50505050905090810190601f16801561020b5780820380516001836020036101000a031916815260200191505b5084810382528b818151815260200191508051906020019080838360005b83811015610244578082015181840152602081019050610229565b50505050905090810190601f1680156102715780820380516001836020036101000a031916815260200191505b509d505050505050505050505050505060405180910390f35b34801561029657600080fd5b5061029f6107b5565b6040518080602001828103825283818151815260200191508051906020019080838360005b838110156102df5780820151818401526020810190506102c4565b50505050905090810190601f16801561030c5780820380516001836020036101000a031916815260200191505b509250505060405180910390f35b6103466004803603602081101561033057600080fd5b8101908080359060200190929190505050610853565b005b34801561035457600080fd5b50610564600480360360e081101561036b57600080fd5b810190808035906020019064010000000081111561038857600080fd5b82018360208201111561039a57600080fd5b803590602001918460018302840111640100000000831117156103bc57600080fd5b91908080601f016020809104026020016040519081016040528093929190818152602001838380828437600081840152601f19601f8201169050808301925050505050505091929192908035906020019064010000000081111561041f57600080fd5b82018360208201111561043157600080fd5b8035906020019184600183028401116401000000008311171561045357600080fd5b91908080601f016020809104026020016040519081016040528093929190818152602001838380828437600081840152601f19601f820116905080830192505050505050509192919290803590602001906401000000008111156104b657600080fd5b8201836020820111156104c857600080fd5b803590602001918460018302840111640100000000831117156104ea57600080fd5b91908080601f016020809104026020016040519081016040528093929190818152602001838380828437600081840152601f19601f82011690508083019250505050505050919291929080359060200190929190803590602001909291908035906020019092919080359060200190929190505050610e03565b005b60015481565b6002602052806000526040600020600091509050806000015490806001018054600181600116156101000203166002900480601f01602080910402602001604051908101604052809291908181526020018280546001816001161561010002031660029004801561061e5780601f106105f35761010080835404028352916020019161061e565b820191906000526020600020905b81548152906001019060200180831161060157829003601f168201915b505050505090806002018054600181600116156101000203166002900480601f0160208091040260200160405190810160405280929190818152602001828054600181600116156101000203166002900480156106bc5780601f10610691576101008083540402835291602001916106bc565b820191906000526020600020905b81548152906001019060200180831161069f57829003601f168201915b505050505090806003018054600181600116156101000203166002900480601f01602080910402602001604051908101604052809291908181526020018280546001816001161561010002031660029004801561075a5780601f1061072f5761010080835404028352916020019161075a565b820191906000526020600020905b81548152906001019060200180831161073d57829003601f168201915b5050505050908060040154908060050154908060060154908060070154908060080160009054906101000a900473ffffffffffffffffffffffffffffffffffffffff16908060080160149054906101000a900460ff1690508a565b60008054600181600116156101000203166002900480601f01602080910402602001604051908101604052809291908181526020018280546001816001161561010002031660029004801561084b5780601f106108205761010080835404028352916020019161084b565b820191906000526020600020905b81548152906001019060200180831161082e57829003601f168201915b505050505081565b61085b6110fd565b60026000838152602001908152602001600020610140604051908101604052908160008201548152602001600182018054600181600116156101000203166002900480601f01602080910402602001604051908101604052809291908181526020018280546001816001161561010002031660029004801561091e5780601f106108f35761010080835404028352916020019161091e565b820191906000526020600020905b81548152906001019060200180831161090157829003601f168201915b50505050508152602001600282018054600181600116156101000203166002900480601f0160208091040260200160405190810160405280929190818152602001828054600181600116156101000203166002900480156109c05780601f10610995576101008083540402835291602001916109c0565b820191906000526020600020905b8154815290600101906020018083116109a357829003601f168201915b50505050508152602001600382018054600181600116156101000203166002900480601f016020809104026020016040519081016040528092919081815260200182805460018160011615610100020316600290048015610a625780601f10610a3757610100808354040283529160200191610a62565b820191906000526020600020905b815481529060010190602001808311610a4557829003601f168201915b50505050508152602001600482015481526020016005820154815260200160068201548152602001600782015481526020016008820160009054906101000a900473ffffffffffffffffffffffffffffffffffffffff1673ffffffffffffffffffffffffffffffffffffffff1673ffffffffffffffffffffffffffffffffffffffff1681526020016008820160149054906101000a900460ff16151515158152505090506000816101000151905060008260000151118015610b2a5750600154826000015111155b1515610b3557600080fd5b3373ffffffffffffffffffffffffffffffffffffffff168173ffffffffffffffffffffffffffffffffffffffff1614151515610b7057600080fd5b3382610100019073ffffffffffffffffffffffffffffffffffffffff16908173ffffffffffffffffffffffffffffffffffffffff16815250506001826101200190151590811515815250508160026000858152602001908152602001600020600082015181600001556020820151816001019080519060200190610bf5929190611169565b506040820151816002019080519060200190610c12929190611169565b506060820151816003019080519060200190610c2f929190611169565b506080820151816004015560a0820151816005015560c0820151816006015560e082015181600701556101008201518160080160006101000a81548173ffffffffffffffffffffffffffffffffffffffff021916908373ffffffffffffffffffffffffffffffffffffffff1602179055506101208201518160080160146101000a81548160ff0219169083151502179055509050508073ffffffffffffffffffffffffffffffffffffffff166108fc349081150290604051600060405180830381858888f19350505050158015610d0a573d6000803e3d6000fd5b507f4e92880991184dc8001396657f045bad716ee38038ba44a7a1d3ed33d044bda460015483602001513433600160405180868152602001806020018581526020018473ffffffffffffffffffffffffffffffffffffffff1673ffffffffffffffffffffffffffffffffffffffff16815260200183151515158152602001828103825286818151815260200191508051906020019080838360005b83811015610dc0578082015181840152602081019050610da5565b50505050905090810190601f168015610ded5780820380516001836020036101000a031916815260200191505b50965050505050505060405180910390a1505050565b60008751111515610e1357600080fd5b60008651111515610e2357600080fd5b60008551111515610e3357600080fd5b600084111515610e4257600080fd5b600083111515610e5157600080fd5b600082111515610e6057600080fd5b600081111515610e6f57600080fd5b6001600081548092919060010191905055506101406040519081016040528060015481526020018881526020018781526020018681526020018581526020018481526020018381526020018281526020013373ffffffffffffffffffffffffffffffffffffffff16815260200160001515815250600260006001548152602001908152602001600020600082015181600001556020820151816001019080519060200190610f1e929190611169565b506040820151816002019080519060200190610f3b929190611169565b506060820151816003019080519060200190610f58929190611169565b506080820151816004015560a0820151816005015560c0820151816006015560e082015181600701556101008201518160080160006101000a81548173ffffffffffffffffffffffffffffffffffffffff021916908373ffffffffffffffffffffffffffffffffffffffff1602179055506101208201518160080160146101000a81548160ff0219169083151502179055509050507fa88356b1299678ec8b125e083751c474128b3b32c45998621d62696aaa8e2e67600154888686868633600060405180898152602001806020018881526020018781526020018681526020018581526020018473ffffffffffffffffffffffffffffffffffffffff1673ffffffffffffffffffffffffffffffffffffffff16815260200183151515158152602001828103825289818151815260200191508051906020019080838360005b838110156110b3578082015181840152602081019050611098565b50505050905090810190601f1680156110e05780820380516001836020036101000a031916815260200191505b50995050505050505050505060405180910390a150505050505050565b610140604051908101604052806000815260200160608152602001606081526020016060815260200160008152602001600081526020016000815260200160008152602001600073ffffffffffffffffffffffffffffffffffffffff1681526020016000151581525090565b828054600181600116156101000203166002900490600052602060002090601f016020900481019282601f106111aa57805160ff19168380011785556111d8565b828001600101855582156111d8579182015b828111156111d75782518255916020019190600101906111bc565b5b5090506111e591906111e9565b5090565b61120b91905b808211156112075760008160009055506001016111ef565b5090565b9056fea165627a7a72305820897da2bff72f2514512dfe6f011614bae2a01bf8d04f895797f29c69e25f76fb0029",
  "source": "pragma solidity ^0.5.0;\r\n\r\ncontract Songstore {\r\n\tstring public applicationTitle;\r\n\tuint public allSongsCounter = 0;\r\n\tmapping(uint => Song) public songs;\r\n\r\n\tstruct Song {\r\n\t\tuint id;\r\n\t\tstring title;\r\n\t\tstring artist;\r\n\t\tstring genre;\r\n\t\tuint priceDigitalDownload;\r\n\t\tuint priceCoverVersion;\r\n\t\tuint priceRegularLicense;\r\n\t\tuint priceExtendedLicense;\r\n\t\taddress payable owner;\r\n\t\tbool purchased;\r\n\t}\r\n\r\n\tevent SongCreated(\r\n\t\t\tuint id,\r\n\t\t\tstring title,\r\n\t\t\tuint priceDigitalDownload,\r\n\t\t\tuint priceCoverVersion,\r\n\t\t\tuint priceRegularLicense,\r\n\t\t\tuint priceExtendedLicense,\r\n\t\t\taddress payable owner,\r\n\t\t\tbool purchased\r\n\t\t); \r\n\r\n\tevent SongPurchased(\r\n\t\t\tuint id,\r\n\t\t\tstring title,\r\n\t\t\tuint value,\r\n\t\t\taddress payable owner,\r\n\t\t\tbool purchased\r\n\t\t); \r\n\r\n\tconstructor() public {\r\n\t\tapplicationTitle = \"Marek's songstore\";\r\n\t}\r\n\r\n\tfunction createSong(string memory _title, string memory _artist, string memory _genre, uint _priceDigitalDownload,\r\n\t\tuint _priceCoverVersion, uint _priceRegularLicense, uint _priceExtendedLicense) public {\r\n\t\t//Make sure parameters are correct\r\n\t\t//Require a valid title and artist\r\n\t\trequire(bytes(_title).length > 0);\r\n\t\trequire(bytes(_artist).length > 0);\r\n\t\trequire(bytes(_genre).length > 0);\r\n\r\n\t\t//Require a valid price\r\n\t\trequire(_priceDigitalDownload > 0);\r\n\t\trequire(_priceCoverVersion > 0);\r\n\t\trequire(_priceRegularLicense > 0);\r\n\t\trequire(_priceExtendedLicense > 0);\r\n\t\t//Increment allSongsCounter\r\n\t\tallSongsCounter ++;\r\n\t\t//Create the song\r\n\t\tsongs[allSongsCounter] = Song(allSongsCounter, _title, _artist, _genre, _priceDigitalDownload, _priceCoverVersion, _priceRegularLicense, _priceExtendedLicense, msg.sender, false);\r\n\t\t// Trigger an event\r\n\t\temit SongCreated(allSongsCounter, _title, _priceDigitalDownload,  _priceCoverVersion, _priceRegularLicense, _priceExtendedLicense, msg.sender, false);\r\n\r\n\t}\r\n\r\n\tfunction purchaseSong(uint _id) public payable {\r\n\t\t//Fetch the song\r\n\t\tSong memory _song = songs[_id];\r\n\r\n\t\t//Fetch the owner\r\n\t\taddress payable _seller = _song.owner;\r\n\t\t//Make sure the song is valid - has a valid id)\r\n\r\n\t\trequire (_song.id > 0 && _song.id <= allSongsCounter);\r\n\t\t//Require that the song has not been purchased already\r\n\t\t//require(!_song.purchased);\r\n\t\t//Require that the buyer is not the seller\r\n\t\trequire(_seller != msg.sender);\r\n\t\t\r\n\t\t\r\n\r\n\t\t//Purchase it - transfer the ownership to the buyer\r\n\t\t_song.owner = msg.sender;\r\n\t\t//Mark as purchased\r\n\t\t_song.purchased = true;\r\n\t\t//Update the song\r\n\t\tsongs[_id] = _song;\r\n\t\t//Pay the seller by sending them Ether\r\n\t\taddress(_seller).transfer(msg.value);\r\n\t\t//Trigger an event\r\n\t\temit SongPurchased(allSongsCounter, _song.title, msg.value, msg.sender, true);\r\n\r\n\t}\r\n\t\r\n}\r\n\r\n",
  "sourcePath": "D:/songstore/src/contracts/Songstore.sol",
  "compiler": {
    "name": "solc",
    "version": "0.5.0+commit.1d4f565a.Emscripten.clang"
  },
  "schemaVersion": "3.0.2",
  "updatedAt": "2021-04-25T00:44:49.621Z",
  "devdoc": {
    "methods": {}
  },
  "userdoc": {
    "methods": {}
  }
}