{
  "contractName": "Songstore",
  "abi": [
    {
      "constant": true,
      "inputs": [],
      "name": "allSongsCounter",
      "outputs": [
        {
          "name": "",
          "type": "uint256"
        }
      ],
      "payable": false,
      "stateMutability": "view",
      "type": "function"
    },
    {
      "constant": true,
      "inputs": [
        {
          "name": "",
          "type": "uint256"
        }
      ],
      "name": "songs",
      "outputs": [
        {
          "name": "id",
          "type": "uint256"
        },
        {
          "name": "title",
          "type": "string"
        },
        {
          "name": "artist",
          "type": "string"
        },
        {
          "name": "genre",
          "type": "string"
        },
        {
          "name": "priceDownloadLicense",
          "type": "uint256"
        },
        {
          "name": "priceCoverLicense",
          "type": "uint256"
        },
        {
          "name": "priceRegularLicense",
          "type": "uint256"
        },
        {
          "name": "priceExtendedLicense",
          "type": "uint256"
        },
        {
          "name": "owner",
          "type": "address"
        }
      ],
      "payable": false,
      "stateMutability": "view",
      "type": "function"
    },
    {
      "anonymous": false,
      "inputs": [
        {
          "indexed": false,
          "name": "id",
          "type": "uint256"
        },
        {
          "indexed": false,
          "name": "title",
          "type": "string"
        },
        {
          "indexed": false,
          "name": "artist",
          "type": "string"
        },
        {
          "indexed": false,
          "name": "genre",
          "type": "string"
        },
        {
          "indexed": false,
          "name": "priceDownloadLicense",
          "type": "uint256"
        },
        {
          "indexed": false,
          "name": "priceCoverLicense",
          "type": "uint256"
        },
        {
          "indexed": false,
          "name": "priceRegularLicense",
          "type": "uint256"
        },
        {
          "indexed": false,
          "name": "priceExtendedLicense",
          "type": "uint256"
        },
        {
          "indexed": false,
          "name": "owner",
          "type": "address"
        }
      ],
      "name": "SongCreated",
      "type": "event"
    },
    {
      "anonymous": false,
      "inputs": [
        {
          "indexed": false,
          "name": "id",
          "type": "uint256"
        },
        {
          "indexed": false,
          "name": "title",
          "type": "string"
        },
        {
          "indexed": false,
          "name": "artist",
          "type": "string"
        },
        {
          "indexed": false,
          "name": "value",
          "type": "uint256"
        },
        {
          "indexed": false,
          "name": "owner",
          "type": "address"
        }
      ],
      "name": "SongPurchased",
      "type": "event"
    },
    {
      "constant": false,
      "inputs": [
        {
          "name": "_title",
          "type": "string"
        },
        {
          "name": "_artist",
          "type": "string"
        },
        {
          "name": "_genre",
          "type": "string"
        },
        {
          "name": "_priceDownloadLicense",
          "type": "uint256"
        },
        {
          "name": "_priceCoverLicense",
          "type": "uint256"
        },
        {
          "name": "_priceRegularLicense",
          "type": "uint256"
        },
        {
          "name": "_priceExtendedLicense",
          "type": "uint256"
        }
      ],
      "name": "createSong",
      "outputs": [],
      "payable": false,
      "stateMutability": "nonpayable",
      "type": "function"
    },
    {
      "constant": false,
      "inputs": [
        {
          "name": "_id",
          "type": "uint256"
        }
      ],
      "name": "purchaseSong",
      "outputs": [],
      "payable": true,
      "stateMutability": "payable",
      "type": "function"
    }
  ],
  "bytecode": "0x60806040526000805534801561001457600080fd5b50611156806100246000396000f3fe608060405260043610610062576000357c0100000000000000000000000000000000000000000000000000000000900463ffffffff1680631f24131114610067578063304cff30146100925780637b3e4ce014610274578063e26cb524146102a2575b600080fd5b34801561007357600080fd5b5061007c6104c0565b6040518082815260200191505060405180910390f35b34801561009e57600080fd5b506100cb600480360360208110156100b557600080fd5b81019080803590602001909291905050506104c6565b604051808a81526020018060200180602001806020018981526020018881526020018781526020018681526020018573ffffffffffffffffffffffffffffffffffffffff1673ffffffffffffffffffffffffffffffffffffffff16815260200184810384528c818151815260200191508051906020019080838360005b83811015610163578082015181840152602081019050610148565b50505050905090810190601f1680156101905780820380516001836020036101000a031916815260200191505b5084810383528b818151815260200191508051906020019080838360005b838110156101c95780820151818401526020810190506101ae565b50505050905090810190601f1680156101f65780820380516001836020036101000a031916815260200191505b5084810382528a818151815260200191508051906020019080838360005b8381101561022f578082015181840152602081019050610214565b50505050905090810190601f16801561025c5780820380516001836020036101000a031916815260200191505b509c5050505050505050505050505060405180910390f35b6102a06004803603602081101561028a57600080fd5b81019080803590602001909291905050506106fc565b005b3480156102ae57600080fd5b506104be600480360360e08110156102c557600080fd5b81019080803590602001906401000000008111156102e257600080fd5b8201836020820111156102f457600080fd5b8035906020019184600183028401116401000000008311171561031657600080fd5b91908080601f016020809104026020016040519081016040528093929190818152602001838380828437600081840152601f19601f8201169050808301925050505050505091929192908035906020019064010000000081111561037957600080fd5b82018360208201111561038b57600080fd5b803590602001918460018302840111640100000000831117156103ad57600080fd5b91908080601f016020809104026020016040519081016040528093929190818152602001838380828437600081840152601f19601f8201169050808301925050505050505091929192908035906020019064010000000081111561041057600080fd5b82018360208201111561042257600080fd5b8035906020019184600183028401116401000000008311171561044457600080fd5b91908080601f016020809104026020016040519081016040528093929190818152602001838380828437600081840152601f19601f82011690508083019250505050505050919291929080359060200190929190803590602001909291908035906020019092919080359060200190929190505050610c87565b005b60005481565b6001602052806000526040600020600091509050806000015490806001018054600181600116156101000203166002900480601f0160208091040260200160405190810160405280929190818152602001828054600181600116156101000203166002900480156105785780601f1061054d57610100808354040283529160200191610578565b820191906000526020600020905b81548152906001019060200180831161055b57829003601f168201915b505050505090806002018054600181600116156101000203166002900480601f0160208091040260200160405190810160405280929190818152602001828054600181600116156101000203166002900480156106165780601f106105eb57610100808354040283529160200191610616565b820191906000526020600020905b8154815290600101906020018083116105f957829003601f168201915b505050505090806003018054600181600116156101000203166002900480601f0160208091040260200160405190810160405280929190818152602001828054600181600116156101000203166002900480156106b45780601f10610689576101008083540402835291602001916106b4565b820191906000526020600020905b81548152906001019060200180831161069757829003601f168201915b5050505050908060040154908060050154908060060154908060070154908060080160009054906101000a900473ffffffffffffffffffffffffffffffffffffffff16905089565b610704611022565b60016000838152602001908152602001600020610120604051908101604052908160008201548152602001600182018054600181600116156101000203166002900480601f0160208091040260200160405190810160405280929190818152602001828054600181600116156101000203166002900480156107c75780601f1061079c576101008083540402835291602001916107c7565b820191906000526020600020905b8154815290600101906020018083116107aa57829003601f168201915b50505050508152602001600282018054600181600116156101000203166002900480601f0160208091040260200160405190810160405280929190818152602001828054600181600116156101000203166002900480156108695780601f1061083e57610100808354040283529160200191610869565b820191906000526020600020905b81548152906001019060200180831161084c57829003601f168201915b50505050508152602001600382018054600181600116156101000203166002900480601f01602080910402602001604051908101604052809291908181526020018280546001816001161561010002031660029004801561090b5780601f106108e05761010080835404028352916020019161090b565b820191906000526020600020905b8154815290600101906020018083116108ee57829003601f168201915b50505050508152602001600482015481526020016005820154815260200160068201548152602001600782015481526020016008820160009054906101000a900473ffffffffffffffffffffffffffffffffffffffff1673ffffffffffffffffffffffffffffffffffffffff1673ffffffffffffffffffffffffffffffffffffffff1681525050905060008161010001519050600082600001511180156109b85750600054826000015111155b15156109c357600080fd5b3373ffffffffffffffffffffffffffffffffffffffff168173ffffffffffffffffffffffffffffffffffffffff16141515156109fe57600080fd5b8160016000858152602001908152602001600020600082015181600001556020820151816001019080519060200190610a38929190611085565b506040820151816002019080519060200190610a55929190611085565b506060820151816003019080519060200190610a72929190611085565b506080820151816004015560a0820151816005015560c0820151816006015560e082015181600701556101008201518160080160006101000a81548173ffffffffffffffffffffffffffffffffffffffff021916908373ffffffffffffffffffffffffffffffffffffffff1602179055509050508073ffffffffffffffffffffffffffffffffffffffff166108fc349081150290604051600060405180830381858888f19350505050158015610b2c573d6000803e3d6000fd5b507f614355fde249949ee957ff217996a5239ff31a804d39884e5d6f6fe559e0f56d838360200151846040015134336040518086815260200180602001806020018581526020018473ffffffffffffffffffffffffffffffffffffffff1673ffffffffffffffffffffffffffffffffffffffff168152602001838103835287818151815260200191508051906020019080838360005b83811015610bdd578082015181840152602081019050610bc2565b50505050905090810190601f168015610c0a5780820380516001836020036101000a031916815260200191505b50838103825286818151815260200191508051906020019080838360005b83811015610c43578082015181840152602081019050610c28565b50505050905090810190601f168015610c705780820380516001836020036101000a031916815260200191505b5097505050505050505060405180910390a1505050565b60008751111515610c9757600080fd5b60008651111515610ca757600080fd5b60008551111515610cb757600080fd5b600084111515610cc657600080fd5b600083111515610cd557600080fd5b600082111515610ce457600080fd5b600081111515610cf357600080fd5b60008081548092919060010191905055506101206040519081016040528060005481526020018881526020018781526020018681526020018581526020018481526020018381526020018281526020013373ffffffffffffffffffffffffffffffffffffffff168152506001600080548152602001908152602001600020600082015181600001556020820151816001019080519060200190610d97929190611085565b506040820151816002019080519060200190610db4929190611085565b506060820151816003019080519060200190610dd1929190611085565b506080820151816004015560a0820151816005015560c0820151816006015560e082015181600701556101008201518160080160006101000a81548173ffffffffffffffffffffffffffffffffffffffff021916908373ffffffffffffffffffffffffffffffffffffffff1602179055509050507ff5a0f43accfd8ff80e4564f1c5b6a05c81a1b32e23871dbdceac02314cae65756000548888888888888833604051808a81526020018060200180602001806020018981526020018881526020018781526020018681526020018573ffffffffffffffffffffffffffffffffffffffff1673ffffffffffffffffffffffffffffffffffffffff16815260200184810384528c818151815260200191508051906020019080838360005b83811015610f09578082015181840152602081019050610eee565b50505050905090810190601f168015610f365780820380516001836020036101000a031916815260200191505b5084810383528b818151815260200191508051906020019080838360005b83811015610f6f578082015181840152602081019050610f54565b50505050905090810190601f168015610f9c5780820380516001836020036101000a031916815260200191505b5084810382528a818151815260200191508051906020019080838360005b83811015610fd5578082015181840152602081019050610fba565b50505050905090810190601f1680156110025780820380516001836020036101000a031916815260200191505b509c5050505050505050505050505060405180910390a150505050505050565b610120604051908101604052806000815260200160608152602001606081526020016060815260200160008152602001600081526020016000815260200160008152602001600073ffffffffffffffffffffffffffffffffffffffff1681525090565b828054600181600116156101000203166002900490600052602060002090601f016020900481019282601f106110c657805160ff19168380011785556110f4565b828001600101855582156110f4579182015b828111156110f35782518255916020019190600101906110d8565b5b5090506111019190611105565b5090565b61112791905b8082111561112357600081600090555060010161110b565b5090565b9056fea165627a7a7230582082ce7ea8d5bb688c689a3566127a09456ab2e3e97304cf2516cc0da8dbf11f5c0029",
  "source": "pragma solidity ^0.5.0;\r\n\r\ncontract Songstore {\r\n\tuint public allSongsCounter = 0;\r\n\tmapping(uint => Song) public songs;\r\n\r\n\tstruct Song {\r\n\t\tuint id;\r\n\t\tstring title;\r\n\t\tstring artist;\r\n\t\tstring genre;\r\n\t\tuint priceDownloadLicense;\r\n\t\tuint priceCoverLicense;\r\n\t\tuint priceRegularLicense;\r\n\t\tuint priceExtendedLicense;\r\n\t\taddress payable owner;\r\n\t}\r\n\r\n\tevent SongCreated(\r\n\t\t\tuint id,\r\n\t\t\tstring title,\r\n\t\t\tstring artist,\r\n\t\t\tstring genre,\r\n\t\t\tuint priceDownloadLicense,\r\n\t\t\tuint priceCoverLicense,\r\n\t\t\tuint priceRegularLicense,\r\n\t\t\tuint priceExtendedLicense,\r\n\t\t\taddress payable owner\r\n\t\t); \r\n\r\n\tevent SongPurchased(\r\n\t\t\tuint id,\r\n\t\t\tstring title,\r\n\t\t\tstring artist,\r\n\t\t\tuint value,\r\n\t\t\taddress payable owner\r\n\t\t); \r\n\r\n\r\n\tfunction createSong(string memory _title, string memory _artist, string memory _genre, uint _priceDownloadLicense,\r\n\t\tuint _priceCoverLicense, uint _priceRegularLicense, uint _priceExtendedLicense) public {\r\n\t\t//Make sure parameters are correct\r\n\t\t//Require a valid title and artist\r\n\t\trequire(bytes(_title).length > 0);\r\n\t\trequire(bytes(_artist).length > 0);\r\n\t\trequire(bytes(_genre).length > 0);\r\n\r\n\t\t//Require a valid price\r\n\t\trequire(_priceDownloadLicense > 0);\r\n\t\trequire(_priceCoverLicense > 0);\r\n\t\trequire(_priceRegularLicense > 0);\r\n\t\trequire(_priceExtendedLicense > 0);\r\n\t\t//Increment allSongsCounter\r\n\t\tallSongsCounter ++;\r\n\t\t//Create the song\r\n\t\tsongs[allSongsCounter] = Song(allSongsCounter, _title, _artist, _genre, _priceDownloadLicense, _priceCoverLicense, _priceRegularLicense, _priceExtendedLicense, msg.sender);\r\n\t\t// Trigger an event\r\n\t\temit SongCreated(allSongsCounter, _title, _artist, _genre, _priceDownloadLicense,  _priceCoverLicense, _priceRegularLicense, _priceExtendedLicense, msg.sender);\r\n\r\n\t}\r\n\r\n\tfunction purchaseSong(uint _id) public payable {\r\n\t\t//Fetch the song\r\n\t\tSong memory _song = songs[_id];\r\n\r\n\t\t//Fetch the owner\r\n\t\taddress payable _seller = _song.owner;\r\n\t\t//Make sure the song is valid - has a valid id)\r\n\r\n\t\trequire (_song.id > 0 && _song.id <= allSongsCounter);\r\n\t\t//Require that the song has not been purchased already\r\n\t\t//require(!_song.purchased);\r\n\t\t//Require that the buyer is not the seller\r\n\t\trequire(_seller != msg.sender);\r\n\t\t\r\n\t\t\r\n\r\n\t\t//Purchase it\r\n\t\t//Update the song\r\n\t\tsongs[_id] = _song;\r\n\t\t//Pay the seller by sending them Ether\r\n\t\taddress(_seller).transfer(msg.value);\r\n\t\t//Trigger an event\r\n\t\temit SongPurchased(_id, _song.title, _song.artist, msg.value, msg.sender);\r\n\r\n\t}\r\n\t\r\n}\r\n\r\n",
  "sourcePath": "D:/songstore/src/contracts/Songstore.sol",
  "compiler": {
    "name": "solc",
    "version": "0.5.0+commit.1d4f565a.Emscripten.clang"
  },
  "schemaVersion": "3.0.2",
  "updatedAt": "2021-04-28T00:27:03.643Z",
  "devdoc": {
    "methods": {}
  },
  "userdoc": {
    "methods": {}
  }
}